:020000040800F2
:10000000C849002081020008C52F0008192A0008ED
:10001000C12F0008F90400083D4900080000000055
:10002000000000000000000000000000C101000806
:1000300029050008000000001D02000849400008D2
:100040009B0200089B0200089B0200089B0200081C
:100050009B0200089B0200089B0200089B0200080C
:100060009B0200089B0200089B0200089B020008FC
:100070009B0200089B0200089B0200089B020008EC
:100080009B0200089B0200089B0200089B020008DC
:100090009B0200089B0200089B0200089B020008CC
:1000A0009B0200089B0200089B0200089B020008BC
:1000B000554100089B0200089B0200089B020008B3
:1000C0009B0200089B0200089B0200089B0200089C
:1000D0009B0200089B0200089B0200089B0200088C
:1000E0009B0200089B0200089B0200089B0200087C
:1000F0009B020008A14100089B0200089B02000827
:100100009B0200089B0200089B0200089B0200085B
:10011000014300089B0200089B0200089B020008A4
:100120009B0200089B0200089B0200089B0200083B
:100130009B0200089B0200089B0200089B0200082B
:100140009B0200089B0200089B0200089B0200081B
:100150009B0200089B0200089B0200089B0200080B
:100160009B0200089B0200089B0200089B020008FB
:100170009B0200089B0200089B0200080000000090
:100180009B0200089B020008754300089B020008C0
:100190009B0200089B0200089B0200089B020008CB
:1001A00000000000000000009B020008DFF80CD0F7
:1001B00000F0ECF80048004795530008C8490020BB
:1001C0002C4B19680868B0E8F04F80F30988BFF33A
:1001D0006F8F4FF0000080F311887047000000001F
:1001E00008480068006880F308884FF0000080F33A
:1001F000148862B661B6BFF34F8FBFF36F8F00DF15
:1002000000BF00BF08ED00E0DFF80C00016841F41A
:1002100070010160704700BF88ED00E0EFF30980D6
:10022000BFF36F8F134B1A681EF0100F08BF20ED3D
:10023000108A20E9F04F106009B44FF0500080F3AD
:100240001188BFF34F8FBFF36F8F05F0E9FF4FF0B9
:10025000000080F3118809BC19680868B0E8F04F05
:100260001EF0100F08BFB0EC108A80F30988BFF3AE
:100270006F8F704730000020EFF30580704700005B
:100280000648804706480047FEE7FEE7FEE7FEE730
:10029000FEE7FEE7FEE7FEE7FEE7FEE7394100087E
:1002A000AD0100082DE9F05F0546002092469B460F
:1002B00088460646814640241BE02846414647467C
:1002C000224600F053F853465A46C01A914110D3C3
:1002D00011461846224600F03AF82D1A67EB01083D
:1002E0004F4622460120002100F031F817EB0009AB
:1002F0004E41201EA4F10104DFDC484631462A4667
:100300004346BDE8F09F40EA01039B0703D009E0A4
:1003100008C9121F08C0042AFAD203E011F8013BF1
:1003200000F8013B521EF9D27047D2B201E000F84A
:10033000012B491EFBD270470022F6E710B5134689
:100340000A4604461946FFF7F0FF204610BD202A52
:1003500004DB203A00FA02F1002070479140C2F11C
:10036000200320FA03F3194390407047202A04DB4E
:10037000203A21FA02F00021704721FA02F3D0401E
:10038000C2F120029140084319467047064C074DC0
:1003900006E0E06840F0010394E807009847103455
:1003A000AC42F6D3FFF706FF7C7500089C75000889
:1003B00070B58C1810F8015B15F0070301D110F827
:1003C000013B2A1106D110F8012B03E010F8016B54
:1003D00001F8016B5B1EF9D12B0705D40023521ED7
:1003E0000DD401F8013BFAE710F8013BCB1A921C3F
:1003F00003E013F8015B01F8015B521EF9D5A1423D
:10040000D8D3002070BD000010B50124802103481E
:1004100000F09EFB00B10024204610BD0008024001
:1004200010B504462146024801F0C8F910BD00008D
:100430000804002010B5044801F0D3F9042801D0C5
:10044000012010BD0020FCE70804002010B50024A6
:1004500000F014F8012801D0012010BD064801F079
:10046000D2F9044634B94FF40061034801F06CF846
:1004700000B101242046F0E70804002008B501205F
:100480000090FFF7C1FF08B9002000909DF8000020
:1004900008BD00002DE9F04104460D461646002730
:1004A00033462A462146044801F080FA00B101276C
:1004B0003846BDE8F08100000804002010B5002295
:1004C00001210248006805F01BF810BD080000205B
:1004D0002DE9F04104460D461646002733462A46CC
:1004E0002146044801F012FB00B101273846BDE85F
:1004F000F08100000804002000BFFEE730B504686A
:10050000246824F4802405682C600468636084688F
:10051000402C04D10468A2600468E16003E0046830
:10052000A1600468E26030BD7047704730B5044692
:100530000D4600222946204600F002F830BD00009A
:10054000F0B50346012500241148407A01281CDA41
:1005500000200F4E767A0E4FB8553846467A001D69
:1005600040F82630001F467A083082553E46707AA1
:10057000461C7E72044604F1300008703A20487030
:100580002F2088700020C87000252846F0BD00008C
:100590009C44002070B504460CB9012070BD94F84D
:1005A000200010B9204600F0AFF82068006820F065
:1005B00002002168086000F0D9FA05460DE000F05D
:1005C000D5FA401B0A2808D9606A40F400306062FE
:1005D000052084F820000120E0E72068406800F052
:1005E00002000028EBD12068006840F0010021687B
:1005F000086000F0BBFA05460DE000F0B7FA401BBA
:100600000A2808D9606A40F400306062052084F846
:1006100020000120C2E72068406800F001000028A7
:10062000EBD0207E012806D12068006840F08000D1
:100630002168086005E02068006820F080002168DB
:100640000860607E012806D12068006840F0400004
:100650002168086005E02068006820F040002168FB
:100660000860A07E012806D12068006840F02000C4
:100670002168086005E02068006820F020002168FB
:100680000860E07E012806D12068006820F0100094
:100690002168086005E02068006840F010002168CB
:1006A0000860207F012806D12068006840F008001B
:1006B0002168086005E02068006820F008002168D3
:1006C0000860607F012806D12068006840F00400BF
:1006D0002168086005E02068006820F004002168B7
:1006E0000860D4E9020108432169084361690843AD
:1006F0006168491E08432168C861002060620120CA
:1007000084F82000002049E710B586B00446142183
:1007100001A8FFF711FE4749206888423AD14648B0
:100720000068401C444908600846006801280FD151
:1007300000BF002000904148006840F000703F4931
:1007400008600846006800F00070009000BF00BF1D
:1007500000BF0020009039481038006840F00100C8
:100760003649103908600846006800F00100009022
:1007700000BF00BF4FF4C050019002200290002043
:100780000390032004900920059001A92C4800F053
:10079000D1F84DE02B492068884249D100BF0020A4
:1007A00000902648006840F08060244908600846B0
:1007B000006800F08060009000BF00BF1E48006825
:1007C000401C1D4908600846006801280FD100BF81
:1007D000002000901948006840F000701749086038
:1007E0000846006800F00070009000BF00BF00BF26
:1007F0000020009011481038006840F002000F49B6
:10080000103908600846006800F00200009000BF40
:1008100000BF4FF44050019002200290002003904E
:10082000032004900920059001A9074800F082F8F0
:1008300006B010BD006400400000002040380240B7
:10084000000002400068004000040240014691F8A8
:100850003500022803D0802048650120704705201C
:1008600081F835000868006820F001000A6810600F
:100870000020F3E70146486D70472DE9F047044634
:100880000D4616461F464FF00008D4F8589000BF9A
:1008900094F83400012802D10220BDE8F08701203D
:1008A00084F8340000BF94F83500012825D10220D7
:1008B00084F83500002060653B46324629462046D4
:1008C000FFF71CFE94F85C103F208840C9F8080030
:1008D0002068006840F0160021680860206C28B18C
:1008E0002068006840F008002168086020680068FF
:1008F00040F001002168086006E000BF002084F895
:10090000340000BF4FF002084046C6E770B5044609
:1009100000F02CF906462546681C10B10448007802
:10092000054400BF00F022F9801BA842FAD370BD35
:1009300028000020F8B502460B46002500240020C0
:100940000021E6E0012606FA01F51E6806EA050424
:10095000AC4273D15E68012E08D05E68022E05D0CD
:100960005E68112E02D05E68122E13D190684F007F
:100970000326BE40B0434F00DE68BE403043906067
:10098000506801268E40B0431E79C6F300168E4093
:1009900030435060D0684F000326BE40B0434F0044
:1009A0009E68BE403043D0605E68022E02D05E6812
:1009B000122E13D1CF0802F1200656F827004E0759
:1009C000F70E0F26BE40B0434F07FF0E1E69BE4014
:1009D0003043CF0802F1200646F8270010684F0088
:1009E0000326BE40B0431E7906F003064F00BE400A
:1009F000304310605E6806F08056B6F1805FA8D183
:100A000000BF00260096454E366846F48046434FA8
:100A10003E603E46366806F48046009600BF00BF42
:100A20003F4E8F0856F827008E07370F0F26BE401F
:100A3000B0433C4EB24202D100262EE068E03A4E6E
:100A4000B24201D1012628E0384EB24201D102263D
:100A500023E0374EB24201D103261EE0354EB242AA
:100A600001D1042619E0344EB24201D1052614E02A
:100A7000324EB24201D106260FE0314EB24201D1D0
:100A800007260AE02F4EB24201D1082605E02E4E7D
:100A9000B24201D1092600E00A268F073F0FBE406F
:100AA00030431F4E8F0846F82700284E3068A04379
:100AB0005E6806F48036B6F5803F00D12043234EB1
:100AC0003060361D3068A0435E6806F40036B6F527
:100AD000003F00D120431D4E361D3060361D30686A
:100AE000A0435E6806F48016B6F5801F00D120434F
:100AF000164E08363060361D3068A0435E6806F436
:100B00000016B6F5001F00D12043104E0C363060A1
:100B1000491C1029FFF416AFF8BD0000443802400C
:100B20000838014000000240000402400008024072
:100B3000000C024000100240001402400018024065
:100B4000001C02400020024000240240003C014002
:100B5000024613690B400BB1012000E000207047F2
:100B60000AB1816101E00B048361704701480068AC
:100B700070470000200000200348006803490978FE
:100B80000844014908607047200000202800002028
:100B900010B50D48006840F400700B490860084625
:100BA000006840F4806008600846006840F4807087
:100BB0000860032000F0C8F8002000F007F800F0FB
:100BC0004BF8002010BD0000003C024070B588B01A
:100BD000044600250026002221462D2000F076F84C
:100BE0002D2000F063F800BF002001901648006837
:100BF00040F48070144908600846006800F4807072
:100C0000019000BF00BF02A903A800F0B9F900F0ED
:100C1000DFF945000D48B5FBF0F0461E0C480D49C4
:100C2000086040F2E7310B48C16046600021016175
:100C3000816001F09BFA20B9064801F0D3FA08B0B0
:100C400070BD0120FBE700004038024040420F0029
:100C5000002000406C07002008B500BF0020009075
:100C60001148006840F480400F4908600846006859
:100C700000F48040009000BF00BF00BF0020009043
:100C8000081F006840F08050091F0860084600688F
:100C900000F08050009000BF00BF00220F21901E86
:100CA00000F014F808BD0000443802400146084630
:100CB000002809DB00F01F0301229A4043099B0032
:100CC00003F1E023C3F8002100BF70472DE9F05F76
:100CD00080460D461646002703F032FE0746394689
:100CE0002A46334601F00700C0F1070ABAF1040FA3
:100CF00002D94FF0040A01E0C0F1070AD14600F121
:100D0000040ABAF1070F02D24FF0000A01E0A0F185
:100D1000030AD4464FF0010A0AFA09FAAAF1010AB5
:100D20000AEA020A0AFA0CFA4FF0010B0BFA0CFB62
:100D3000ABF1010B0BEA030B4AEA0B0421464046D8
:100D400003F006FEBDE8F09F00BF00F00702064B6F
:100D500019684FF6FF031940044B0B4343EA022185
:100D6000014B196000BF70470CED00E00000FA0570
:100D700038B5002400BF002000901D48006840F0F6
:100D800080501B4908600846006800F080500090C1
:100D900000BF00BF012017490864FFF7E7FE0446C3
:100DA00007E0FFF7E3FE001BB0F57A7F01D90320CF
:100DB00038BD1148406800F48030B0F5803FF0D174
:100DC00001200C494864FFF7D1FE044607E0FFF715
:100DD000CDFE001BB0F57A7F01D90320E8E7064875
:100DE000406800F40030B0F5003FF0D10020DFE7AC
:100DF0004038024000000E420070004070B50446CA
:100E00000D460CB9012070BD5848006800F00F0075
:100E1000A84209D255490D700846006800F00F003D
:100E2000A84201D00120EEE7207800F0020002285D
:100E30001DD1207800F00400042805D14C4800683A
:100E400040F4E0504A490860207800F00800082883
:100E500005D14748006840F460404549086044486F
:100E6000006820F0F000A16808434149086020783C
:100E700000F00100A8B36068012807D13C48083899
:100E80000068C0F34040B8B90120BCE760680228A0
:100E900002D06068032807D1354808380068C0F3DD
:100EA000406048B90120AEE7314808380068C0F317
:100EB000400008B90120A6E72D48006820F0030093
:100EC000616808432A490860FFF750FE064609E0BA
:100ED000FFF74CFE801B41F28831884202D9032083
:100EE00091E707E02248006800F00C006168B0EB71
:100EF000810FEDD11D48006800F00F00A84209D90C
:100F00001A490D700846006800F00F00A84201D091
:100F1000012078E7207800F00400042807D1144865
:100F2000006820F4E050E168084311490860207827
:100F300000F00800082808D10D48006820F460403F
:100F4000216940EAC1000A49086000F061F80849D7
:100F50000968C1F30311074A515CC840064908609B
:100F600006480068FFF732FE00204CE7003C0240D4
:100F7000083802404C7300082C0000202400002098
:100F80000F2202600D4A126802F0030242600B4A0F
:100F9000126802F0F0028260084A126802F4E0521D
:100FA000C260064A126802F46042D2080261044A32
:100FB000126802F00F020A60704700000838024011
:100FC000003C024001480068704700002C000020EF
:100FD00000B5FFF7F7FF04490968C1F38221034A0E
:100FE000515CC84000BD0000083802405C73000836
:100FF00000B5FFF7E7FF04490968C1F34231034A2E
:10100000515CC84000BD0000083802405C73000815
:101010002DE9F047002400250026A1462548006858
:1010200000F00C0020B1042805D008283AD105E0D2
:10103000DFF8849039E0DFF8849036E01D48001F27
:10104000006800F03F041B48001F006800F48000A7
:1010500078B11A481749091F0968C1F38811A0FB24
:1010600001700146224600233846FFF71BF905466A
:101070000EE011480F49091F0968C1F38811A0FB50
:1010800001700146224600233846FFF70BF905465A
:101090000848001F0068C0F30140401C4600B5FB33
:1010A000F6F902E0DFF8109000BF00BF4846BDE847
:1010B000F0870000083802400024F4008096980071
:1010C000F8B504460CB90120F8BD207800F0010005
:1010D000002874D0F948006800F00C0004280DD0F6
:1010E000F648006800F00C00082813D1F348001FF0
:1010F000006800F48000B0F5800F0BD1EF4808388D
:101100000068C0F34040002859D06068002856D1DC
:101110000120D9E700BF6068B0F5803F08D1E748FB
:101120000838006840F48030E449083908601EE05F
:101130006068B0F5A02F0DD1E0480838006840F491
:101140008020DE49083908600846006840F4803095
:1011500008600CE0D9480838006820F48030D7498E
:10116000083908600846006820F48020086000BF45
:10117000606890B1FFF7FAFC054606E0FFF7F6FC61
:10118000401B642801D903209EE7CC48083800683A
:10119000C0F340400028F1D011E0FFF7E7FC05461E
:1011A00006E0FFF7E3FC401B642801D903208BE72E
:1011B000C24808380068C0F340400028F1D12078C8
:1011C00000F0020002285FD1BC48006800F00C006B
:1011D00058B1BA48006800F00C0008281CD1B74884
:1011E000001F006800F48000B0B9B44808380068F7
:1011F000C0F3400020B1E068012801D0012063E77E
:10120000AE480838006820F0F800216940EAC100C3
:10121000AA490839086037E0E06800B30120A8490E
:101220000860FFF7A3FC054606E0FFF79FFC401BA4
:10123000022801D9032047E7A04808380068C0F316
:1012400040000028F1D09D480838006820F0F800E0
:10125000216940EAC10099490839086014E000207A
:1012600097490860FFF782FC054606E0FFF77EFC21
:10127000401B022801D9032026E79048083800685F
:10128000C0F340000028F1D1207800F008000828C1
:101290002CD16069A8B101208A490860FFF766FC7B
:1012A000054606E0FFF762FC401B022801D9032037
:1012B0000AE782486C300068C0F340000028F1D093
:1012C00014E000207F490860FFF750FC054606E067
:1012D000FFF74CFC401B022801D90320F4E67748B5
:1012E0006C300068C0F340000028F1D1207800F095
:1012F0000400042870D1002770483830006800F0DE
:10130000805090B900BF002000906C4838300068D1
:1013100040F080506949383108600846006800F0A4
:101320008050009000BF00BF01276748006800F4AC
:101330008070B0B96448006840F480706249086009
:10134000FFF714FC054606E0FFF710FC401B0228DF
:1013500001D90320B8E65C48006800F480700028DA
:10136000F2D000BFA068012808D154486830006856
:1013700040F001005149683108601DE0A06805286F
:101380000DD14E486830006840F004004B49683188
:1013900008600846006840F0010008600CE047481B
:1013A0006830006820F00100444968310860084650
:1013B000006820F00400086000BFA068A8B1FFF733
:1013C000D5FB054609E0FFF7D1FB401B41F2883110
:1013D000884202D9032077E626E038486830006862
:1013E000C0F340000028EED013E0FFF7BFFB054636
:1013F00008E0FFF7BBFB401B41F28831884201D96E
:10140000032061E62D4868300068C0F340000028E2
:10141000EFD1012F07D129483830006820F08050E3
:1014200026493831086000BFA069002845D023480C
:10143000006800F00C0008285DD0A069022845D1A2
:1014400000201F490866FFF791FB054606E0FFF7FD
:101450008DFB401B022801D9032035E617480838C8
:101460000068C0F340600028F1D1D4E907010843C7
:10147000616A40EA81110122A06AC2EB500041EA90
:1014800000412C20005D41EA00600C49091F086002
:1014900001200B490866FFF769FB054606E0FFF7E8
:1014A00065FB401B022801D903200DE603480838DC
:1014B0000068C0F340600028F1D03FE008380240E7
:1014C00000004742800E47420070004000201C4947
:1014D0000866FFF74BFB054606E0FFF747FB401B9E
:1014E000022801D90320EFE516480068C0F34060E8
:1014F0000028F2D122E0A069012800D1E4E51148DA
:10150000001D066806F48001E069814214D106F0EE
:101510003F01206A81420FD147F6C0703040616AB6
:10152000884209D106F44031A06A814204D106F014
:101530007061E06A814201D00120C5E50020C3E569
:10154000000047420038024070B58AB004460D469C
:10155000032084F83400606C032820D0B5F5805F48
:1015600004D1A06B40F08050A0631CE0B5F5006F83
:1015700007D1204602F09EFB0646A06B3043A063D5
:1015800011E03DB9204602F061FB0646A06B3043F6
:10159000A06308E0A06B40F00060A06303E0A06BD4
:1015A00040F08050A063A06B38B110482168886378
:1015B000012084F834000AB070BD60680490A0680F
:1015C0000590E0680690079560690890A069099009
:1015D00007A807C88DE80700206804A90EC901F014
:1015E00017FD012084F834000020E4E7FF054000E7
:1015F0007047000010B50246506E800F0870506EA4
:10160000C0F383604870506EC0F301608870506E04
:10161000000CC870B2F86400000A087192F8640007
:101620004871906E000DC880906EC0F30340087240
:101630006820805AC0F3C03048726820805AC0F3D6
:10164000803088726820805AC0F34030C8726820A9
:10165000805AC0F30030087300204873506C002893
:1016600036D16820805A8005030DD06E43EA907011
:101670000861D06EC0F3C2600875D06EC0F302601E
:101680004875D06EC0F342508875D06EC0F382406A
:10169000C875D06EC0F3C23008760869401C50652A
:1016A0000B7E506D03F007039B1C01249C4060439C
:1016B0005065087A00F00F03012098409065D2E948
:1016C00015035B0A5843D0654FF40073136621E09D
:1016D000506C012813D16820805C8006830AD06E8C
:1016E00043EA104008610869401C83025365536D4A
:1016F000D3654FF400739365936D13660AE02E482B
:1017000013689863906B40F080509063012082F8DA
:10171000340010BD6C20805AC0F3803001F8190FDE
:101720006C20805AC0F3C61048706C20805C00F0BA
:101730007F008870106FC00FC870106FC0F34170C9
:101740000871106FC0F382604871106FC0F383504E
:101750008871106FC0F34050C87100200872106F7C
:10176000C0F3004048727020805AC0F3C0308872C5
:101770007020805AC0F38030C8727020805AC0F345
:10178000403008737020805AC0F3003048737020D6
:10179000805AC0F3812088737020805AC0F30120E2
:1017A000C8737020805CC0F3460008740120487440
:1017B00019390020ADE70000FF0540000246506CDB
:1017C0000860906C4860D06C8860106DC860506D87
:1017D0000861906D4861D06D8861106EC86100200D
:1017E0007047F8B50446002000906946204602F094
:1017F00015FA054615B1A06B2843A0630098C0F305
:1018000043263046F8BD10B504460CB9012010BD82
:1018100094F8340020B900202077204600F054F8D6
:10182000032084F83400204600F00CF808B10120B1
:10183000EDE70020A0632063012084F8340000203D
:10184000E5E7000070B58AB00446002004900590DA
:101850000690079008907620099007A807C88DE8A1
:101860000700206804A90EC901F0D2FB064616B194
:1018700001200AB070BD002012490860206801F004
:10188000E1FB01200F49A039C1F8A000204602F079
:101890005FF905463DB1012084F83400A06B284370
:1018A000A0630120E5E7204602F0D1F805463DB1EE
:1018B000012084F83400A06B2843A0630120D8E7FE
:1018C0000020D6E7A080254210B586B0044614213A
:1018D00001A8FEF731FD3149206888425CD100BF84
:1018E000002000902E48006840F400602C490860F9
:1018F0000846006800F40060009000BF00BF00BF11
:101900000020009026481438006840F00400244964
:10191000143908600846006800F00400009000BF19
:1019200000BF00BF002000900846006840F008009B
:1019300008600846006800F00800009000BF00BF83
:101940004FF4706001900220029001200390032068
:1019500004900C20059001A91248FEF7EBFF4FF40C
:1019600080500190022002900020039003200490F8
:101970000C20059001A90B48FEF7DCFF0420019024
:101980000220029001200390032004900C20059077
:1019900001A90548FEF7CEFF06B010BD002C01409E
:1019A0004438024000080240000C02402DE9F04398
:1019B00087B004460F4691461E46C8463FB9A06B05
:1019C00040F00060A063012007B0BDE8F08394F808
:1019D0003400012871D10020A06308EB0601E06DFE
:1019E000814205D9A06B40F00070A0630120EBE7B5
:1019F000032084F8340000202168C8622068C06B8E
:101A000040F22A3108432168C8633948216CC86311
:101A10003848216CC8640020216C08657202930864
:101A2000226802F180013A46206CFEF726FF80B161
:101A30002068C06B20F495702168C8632E48216827
:101A40008863A06B40F08040A063012084F83400DC
:101A5000BAE7012029490860606C012801D04FEAEB
:101A600048284FF40071206801F048FB05464DB14D
:101A7000214821688863A06B2843A063012084F873
:101A80003400A1E74FF0FF300190700202909020E7
:101A9000039002200490002005900120069001A9E7
:101AA000206801F090FA012E08D982202063414677
:101AB000206801F08BFB054607E016E081202063DB
:101AC0004146206801F09EFB054665B10A48216841
:101AD0008863A06B2843A063012084F834000020B1
:101AE0002063012070E700206EE702206CE7000011
:101AF000C13800084D380008FF0540008C8525429C
:101B000010B50446FEF7DAFC10BD00002DE9F043E5
:101B100087B00446884691461E464F46B8F1000FEE
:101B200007D1A06B40F00060A063012007B0BDE8C2
:101B3000F08394F83400012877D10020A063B9190C
:101B4000E06D814205D9A06B40F00070A0630120D8
:101B5000ECE7032084F8340000202168C862206884
:101B6000C06B40F21A2108432168C8633948E16B11
:101B7000C8633948E16BC8640020E16B0865606C9C
:101B8000012800D07F024FF40071206801F0B6FAFE
:101B900005464DB1314821688863A06B2843A06396
:101BA000012084F83400C1E7012E07D9A02020636A
:101BB0003946206801F004FC054606E090202063C9
:101BC0003946206801F018FC054665B123482168B4
:101BD0008863A06B2843A063012084F834000020B0
:101BE00020630120A2E701201D49086071028B08D3
:101BF000216801F180024146E06BFEF73EFEA8B18C
:101C00002068C06B40F21A2188432168C8631348DA
:101C100021688863A06B40F08040A063012084F8B5
:101C2000340000202063012080E711E04FF0FF30F6
:101C30000190700202909020039000200490059083
:101C40000120069001A9206801F0BDF900206DE790
:101C500002206BE7093900084D380008FF054000F5
:101C60008C85254210B504460CB9012010BD606A70
:101C700000B900BF0021A16294F8510028B90020EA
:101C800084F85000204600F033F8022084F8510018
:101C90002068006820F0400021680860D4E9010154
:101CA0000843E16808432169084361690843218BBF
:101CB00001F400710843E1690843216A0843A16AFD
:101CC0000843216808600421A06901EA1040616AA4
:101CD0000843216848602068C06920F400602168DA
:101CE000C86100206065012084F851000020BDE734
:101CF00010B586B00446142101A8FEF71DFB7B49F0
:101D00002068884230D100BF0020009078480068E9
:101D100040F48050764908600846006800F480501E
:101D2000009000BF00BF00BF002000907048143832
:101D3000006840F001006E491439086008460068E8
:101D400000F00100009000BF00BFE02001900220E1
:101D5000029000200390032004900520059001A923
:101D60006448FEF7E7FDBFE063492068884250D130
:101D700000BF002000905E48001F006840F48040D3
:101D80005B49091F08600846006800F48040009025
:101D900000BF00BF00BF0020009055481438006805
:101DA00040F004005249143908600846006800F009
:101DB0000400009000BF00BF00BF00200090084654
:101DC000006840F0020008600846006800F0020069
:101DD000009000BF00BF0C20019002200290002064
:101DE0000390032004900520059001A94348FEF7C5
:101DF000A1FD4FF48060019002200290002003902A
:101E0000032004900520059001A93D48FEF792FDAE
:101E10006AE03C492068884232D100BF002000902F
:101E20003348001F006840F400403149091F086032
:101E30000846006800F40040009000BF00BF00BFEB
:101E4000002000902A481438006840F00200284919
:101E5000143908600846006800F00200009000BFD6
:101E600000BF382001900220029000200390032040
:101E700004900620059001A92148FEF75BFD33E0A0
:101E80002149206888422FD100BF002000901848C7
:101E9000006840F40050164908600846006800F4E5
:101EA0000050009000BF00BF00BF0020009010480D
:101EB0001438006840F010000D49143908600846D5
:101EC000006800F01000009000BF00BF6420019087
:101ED000022002900020039003200490052005902A
:101EE00001A90A48FEF726FD06B010BD00300140EA
:101EF0004438024000000240003800400008024020
:101F000000040240003C0040003401400010024048
:101F10002DE9F84F0446884616461D464FF0000A44
:101F200000BF94F85000012802D10220BDE8F88FCC
:101F3000012084F8500000BFFEF718FE0746B146A6
:101F400094F85100012802D04FF0020AA7E0B8F13E
:101F5000000F00D016B94FF0010AA0E0032084F86A
:101F6000510000206065C4F83080A686E686A06334
:101F7000A087E08760642064A068B0F5004F05D1B9
:101F80002068006840F4804021680860206800688C
:101F900000F04000402805D02068006840F0400074
:101FA00021680860E068B0F5006F2FD1606810B15B
:101FB000B9F1010F09D1206B00882168C860206B3E
:101FC000801C2063E08E401EE0861BE02068806855
:101FD00000F0020002280AD1206B00882168C86046
:101FE000206B801C2063E08E401EE0860AE0FEF736
:101FF000BDFDC01BA84201D3681C00B915B94FF044
:10200000030A4CE0E08E0028E0D12EE0606810B1B9
:10201000B9F1010F09D1206B007821680873206B9A
:10202000401C2063E08E401EE0861BE02068806834
:1020300000F0020002280AD1206B007821680873A2
:10204000206B401C2063E08E401EE0860AE0FEF715
:102050008DFDC01BA84201D3681C00B915B94FF013
:10206000030A1CE0E08E0028E0D13A4629462046CB
:1020700001F048FF08B120206065A06850B900BF9A
:10208000002000902068C068009020688068009060
:1020900000BF00BF606D08B14FF0010A00BF012012
:1020A00084F8510000BF002084F8500000BF504663
:1020B0003CE770477047000030B502460B4600BF52
:1020C00092F83C00012801D1022030BD012082F8A5
:1020D0003C0000BF022082F83D0010684468106890
:1020E000816824F070041868044310684460184D37
:1020F0001068A8421BD01068B0F1804F17D0154D62
:102100001068A84213D0144D1068A8420FD0134D88
:102110001068A8420BD0124D1068A84207D0114D8C
:102120001068A84203D0104D1068A84205D121F0D4
:1021300080015868014310688160012082F83D00E9
:1021400000BF002082F83C0000BF00BFBDE70000D8
:10215000000001400004004000080040000C004066
:1021600000040140004001400018004010B5044642
:102170000CB9012010BD94F83D0028B9002084F866
:102180003C00204600F00CF8022084F83D00211DA0
:10219000206802F00DF8012084F83D000020E9E7F6
:1021A00038B504462068B0F1804F17D100BF002039
:1021B00000900B48006840F001000949086008469B
:1021C000006800F00100009000BF00BF0022052160
:1021D0001C20FEF77BFD1C20FEF768FD38BD0000CB
:1021E0004038024001460868C06840F001000B68B2
:1021F000D8600868806800F00702062A05D00868E1
:10220000006840F001000B6818600020704701462C
:102210000868C06820F001000A68D06000BF086844
:10222000006A41F21112104050B90868006A921019
:10223000104028B90868006820F001000A681060A2
:1022400000BF002070472DE9F04104460D4600BF55
:1022500094F83C00012802D10220BDE8F081012061
:1022600084F83C0000BF022084F83D0020688668A6
:1022700026F0770626F47F46206886602868502876
:1022800033D00CDC202850D004DC00284BD01028A0
:1022900051D149E0302849D040284CD139E060285C
:1022A0002DD0702807D0B0F5805F03D0B0F5005F67
:1022B00041D10DE040E0D5E902136A68206801F0E1
:1022C000E3FF2068866846F077062068866033E082
:1022D000D5E902136A68206801F0D6FF206880689B
:1022E00040F480402168886026E0EA6869682068D8
:1022F00001F0DEFF5021206801F0D1FF1CE0EA6808
:102300006968206801F0E7FF6021206801F0C7FFDD
:1023100012E0EA686968206801F0CAFF402120687D
:1023200001F0BDFF08E000BF00BF00BF29682068C2
:1023300001F0B5FF00E000BF00BF012084F83D00C0
:1023400000BF002084F83C0000BF00BF85E7704755
:1023500010B5044620680069C0F34000D8B1206879
:10236000C068C0F34000B0B16FF00200216808619E
:10237000012020772068806900F0030018B1204612
:10238000FFF7E5FF05E0204600F0ADF8204600F03D
:10239000ABF80020207720680069C0F38000D8B136
:1023A0002068C068C0F38000B0B16FF004002168FD
:1023B0000861022020772068806900F4407018B11D
:1023C0002046FFF7C4FF05E0204600F08CF82046C9
:1023D00000F08AF80020207720680069C0F3C00070
:1023E000D8B12068C068C0F3C000B0B16FF0080079
:1023F00021680861042020772068C06900F003008C
:1024000018B12046FFF7A3FF05E0204600F06BF867
:10241000204600F069F80020207720680069C0F3AA
:102420000010D8B12068C068C0F30010B0B16FF0E0
:10243000100021680861082020772068C06900F436
:10244000407018B12046FFF782FF05E0204600F0FB
:102450004AF8204600F048F80020207720680069FC
:1024600000F0010058B12068C06800F0010030B1F0
:102470006FF0010021680861204600F037F82068FD
:102480000069C0F3C01058B12068C068C0F3C01024
:1024900030B16FF08000216808612046FFF709FE27
:1024A00020680069C0F3801058B12068C068C0F38C
:1024B000801030B16FF0400021680861204600F0C4
:1024C00021F820680069C0F3401058B12068C06846
:1024D000C0F3401030B16FF0200021680861204641
:1024E000FFF7E8FD10BD70477047000010B50446C7
:1024F00003492068884201D1FEF73EFB10BD000071
:1025000000200040704770472DE9F04704462068DE
:1025100005682068C668206847694FF00008C14612
:1025200005F00F08B8F1000F0AD105F0200038B10E
:1025300006F0200020B1204601F04EFFBDE8F087F4
:10254000B8F1000F72D007F0010018B906F49070CE
:1025500000286BD005F0010030B106F4807018B18E
:10256000E06B40F00100E06305F0040030B107F0DB
:10257000010018B1E06B40F00200E06305F00200DA
:1025800030B107F0010018B1E06B40F00400E063E7
:1025900005F0080048B106F0200010B907F001006E
:1025A00018B1E06B40F00800E063E06B70B305F039
:1025B000200028B106F0200010B1204601F00CFFE9
:1025C00020684069C0F38019E06B00F0080010B982
:1025D000B9F1000F23D0204601F0DEFE20684069EB
:1025E00000F04000402816D12068406920F04000EB
:1025F00021684861606B50B11748616B0865606B7A
:10260000FEF724F910B1606B016D88470CE020469D
:10261000FFF779FF08E02046FFF775FF04E020464A
:10262000FFF771FF0020E06388E7FFE705F0800017
:1026300030B106F0800018B1204602F015F97DE7B0
:1026400005F0400030B106F0400018B1204601F01E
:10265000B3FE73E700BF71E78543000810B5044679
:102660000CB9012010BDA06900B100E000BF94F8D2
:10267000390028B9002084F83800204600F028F8F6
:10268000242084F839002068C06820F400502168B4
:10269000C860204601F0F4FE2068006920F49040F4
:1026A000216808612068406920F02A00216848619B
:1026B0002068C06840F400502168C8600020E063D2
:1026C000202084F8390084F83A000020CAE700008E
:1026D00010B586B00446142101A8FDF72DFE8F49E0
:1026E0002068884238D100BF002000908C480068E4
:1026F00040F400208A4908600846006800F4002081
:10270000009000BF00BF00BF002000908448103838
:10271000006840F0010082491039086008460068EE
:1027200000F00100009000BF00BF032001900220D4
:10273000029001200390032004900820059001A935
:102740007848FEF7F7F8002205213420FEF7BEFA9C
:102750003420FEF7ABFADEE073492068884239D1B5
:1027600000BF002000906E48006840F080406C4937
:1027700008600846006800F08040009000BF00BF7D
:1027800000BF0020009066481038006840F010003C
:102790006349103908600846006800F01000009096
:1027A00000BF00BF4FF4C0700190022002900120D2
:1027B0000390032004900820059001A95B48FEF7D0
:1027C000B9F8002205215220FEF780FA5220FEF7C8
:1027D0006DFAA0E056492068884230D100BF002041
:1027E00000904F48006840F000404D49086008469E
:1027F000006800F00040009000BF00BF00BF002054
:10280000009047481038006840F0100044491039E3
:1028100008600846006800F01000009000BF00BF8C
:1028200003200190022002900120039003200490D5
:102830000820059001A93D48FEF77CF86BE03D4972
:102840002068884233D100BF002000903448001D2A
:10285000006840F010003249091D08600846006811
:1028600000F01000009000BF00BF00BF00200090EB
:102870002B481038006840F00100294910390860E1
:102880000846006800F00100009000BF00BF4FF450
:10289000C060019002200290002003900320049069
:1028A0000720059001A91F48FEF744F833E02249AC
:1028B000206888422FD100BF00200090184800688F
:1028C00040F40030164908600846006800F4003003
:1028D000009000BF00BF00BF0020009010481038DB
:1028E000006840F001000E49103908600846006891
:1028F00000F00100009000BF00BF0C2001900220FA
:10290000029000200390032004900720059001A965
:102910000448FEF70FF806B010BD0000004C004060
:1029200040380240000002400078004000100240A1
:10293000007C0040001001400044004070472DE939
:10294000F84304460D4616461F464FF0000994F81A
:10295000390020285DD105B116B90120BDE8F88302
:1029600000BF94F83800012801D10220F6E70120C9
:1029700084F8380000BF0020E063212084F839008B
:10298000FEF7F4F88146A684E68400BF002084F8B0
:10299000380000BF2BE0E08C401EE084A068B0F55A
:1029A000805F16D14B46002280212046009701F01F
:1029B0008FFF08B10320D1E7A846B8F80000C0F3A4
:1029C000080021684860206908B9AD1C0FE06D1C43
:1029D0000DE04B46002280212046009701F078FF51
:1029E00008B10320BAE715F8010B21684860E08CB4
:1029F0000028D0D14B46002240212046009701F00C
:102A000067FF08B10320A9E7202084F839000020DF
:102A1000A4E70220A2E7704700BFFEE710B50B480D
:102A20000B49086010204860002109488160C1609E
:102A300001614161017641768176C1760177417706
:102A4000FDF7A8FD08B1FDF770FD10BD0064004062
:102A50006401002010B50B480B4908601020486045
:102A6000002109488160C1600161416101764176C0
:102A70008176C17601774177FDF78CFD08B1FDF7CE
:102A800054FD10BD006800408C01002010B50349C2
:102A90000348FDF74BFD0349087010BD0D000020F1
:102AA000F07200080C00002000B58FB01C220C4909
:102AB00008A8FDF728FC002108A802F051FD0949EB
:102AC00008601C2206491C3101A8FDF71CFC0021EE
:102AD00001A802F045FD044908600FB000BD0000E8
:102AE00014730008180000201C00002000B587B0F7
:102AF000142102A8FDF720FC00BF002001907E48B1
:102B0000006840F010007C4908600846006800F04A
:102B10001000019000BF00BF00BF002001900846D8
:102B2000006840F0040008600846006800F00400F7
:102B3000019000BF00BF00BF002001900846006860
:102B400040F0800008600846006800F080000190B6
:102B500000BF00BF00BF002001900846006840F0A1
:102B6000010008600846006800F00100019000BF05
:102B700000BF00BF002001900846006840F002003E
:102B800008600846006800F00200019000BF00BF26
:102B900000BF002001900846006840F0080008606F
:102BA0000846006800F00800019000BF00BF012245
:102BB0004EF218015148FDF7D3FF0122332150484E
:102BC000FDF7CEFF012210214E48FDF7C9FF01227B
:102BD00003214D48FDF7C4FF00224CF6C0314A489E
:102BE000FDF7BEFF01224AF2E0014848FDF7B8FFB9
:102BF000002244F21B014548FDF7B2FF00224021AC
:102C00003F48FDF7ADFF4EF21800029001200390FF
:102C1000002004900320059002A93848FDF78AFEA1
:102C2000332002900120039000200490032005909F
:102C300002A93348FDF77EFE102002900120039088
:102C4000002004900320059002A92E48FDF772FE93
:102C50004CF2030002900120039000200490032016
:102C6000059002A92848FDF765FE4FF460600290C8
:102C7000002003900120049002A92048FDF75AFE8D
:102C80004FF43C60029001200390002004900590D6
:102C900002A91D48FDF74EFE4EF21B0002900120D6
:102CA000039000200490059002A91848FDF742FE09
:102CB000402002900120039000200490059002A97A
:102CC0000F48FDF737FE802002900020039001207E
:102CD000049002A90A48FDF72DFEE0200290012091
:102CE0000390002004900320059002A90748FDF7F7
:102CF00021FE07B000BD0000303802400010024045
:102D0000000802400000024000040240000C0240A3
:102D10000648074908600020486000210448816097
:102D2000C16001614161816170470000002C014078
:102D30000804002010B50E480E4908604FF4827058
:102D4000486000210B488160C160016141614FF41E
:102D5000007181611021C1610021016241628162C3
:102D60000A21C162FEF77EFF08B1FDF7DEFB10BD50
:102D7000003001408C04002010B50E480E49086058
:102D80004FF48270486000210B488160C16001618E
:102D900041614FF4007181610021C16101624162B2
:102DA00081620A21C162FEF75DFF08B1FDF7BDFB3C
:102DB00010BD000000380040E404002010B50E48AB
:102DC0000E4908604FF48270486000210B48816012
:102DD000C160016141614FF4007181610021C161F5
:102DE0000162416281620A21C162FEF73BFF08B1C4
:102DF000FDF79BFB10BD0000003C00403C0500209F
:102E000010B50E480E4908604FF4827048600021EA
:102E10000B488160C160016141614FF400718161C3
:102E20000021C1610162416281620A21C162FEF733
:102E300019FF08B1FDF779FB10BD00000034014017
:102E40009405002000B587B0002003900490059001
:102E50000690019002904FF08040124908600020D7
:102E6000486000210F488160C16001618161FFF706
:102E70007DF908B1FDF759FB4FF48050039003A989
:102E80000848FFF7E0F908B1FDF74FFB002001907B
:102E9000029001A90348FFF70FF908B1FDF745FBC0
:102EA00007B000BDEC05002010B50B480B490860C9
:102EB0004FF4E1304860002108488160C160016141
:102EC0000C21416100218161C161FFF7C7FB08B19D
:102ED000FDF72BFB10BD0000004C00402C0600202D
:102EE00010B50B480B4908604FF4E13048600021F1
:102EF00008488160C16001610C214161002181614C
:102F0000C161FFF7ABFB08B1FDF70FFB10BD00007F
:102F1000007800406C06002010B50B480B49086093
:102F20004FF4E1304860002108488160C1600161D0
:102F30000C21416100218161C161FFF78FFB08B164
:102F4000FDF7F3FA10BD0000007C0040AC06002045
:102F500010B50B480B4908604FF4E1304860002180
:102F600008488160C16001610C21416100218161DB
:102F7000C161FFF773FB08B1FDF7D7FA10BD000080
:102F800000100140EC06002010B50B480B4908600A
:102F90004FF4E1304860002108488160C160016160
:102FA0000C21416100218161C161FFF757FB08B12C
:102FB000FDF7BBFA10BD0000004400402C070020C4
:102FC00000BFFEE7704710B5024600230868506254
:102FD00048689062D1E9020420430C6920434C699F
:102FE00020430343D06A20F0F7001843D06200204A
:102FF00010BD01460869C0B270470146086800F07C
:1030000003007047024602F1140043181868704725
:103010000FB410B504460021DDE903021043059A00
:103020001043069A1043079A1043089A104301432D
:10303000606847F6FF62904308436060002010BC60
:103040005DF814FB10B50446032020600220FDF754
:103050005DFC002010BD0146D1F88000704710B51E
:103060000246002308689060D1E901042043CC683F
:1030700020430C6920430343D0686FF30B001843CF
:10308000D060002010BD70B586B005460C46019496
:103090003720029040200390002004904FF480607D
:1030A000059001A92846FFF7DAFF41F2883237215F
:1030B000284600F0DDF90646304606B070BD000037
:1030C00070B586B005460C460B4820430190292078
:1030D000029040200390002004904FF480600590FF
:1030E00001A92846FFF7BBFF284600F0C9FA0646AB
:1030F000304606B070BD00000000108070B586B08C
:1031000005460C46019410200290402003900020B8
:1031100004904FF48060059001A92846FFF79FFFB7
:1031200041F288321021284600F0A2F906463046C6
:1031300006B070BD70B586B005460C4601940620F9
:10314000029040200390002004904FF4806005908E
:1031500001A92846FFF783FF41F28832062128465D
:1031600000F086F90646304606B070BD30B585B031
:103170000446002000900190029003904FF480607C
:10318000049069462046FFF76AFF204600F050F998
:103190000546284605B030BD30B585B004464FF42D
:1031A000D5700090082001904020029000200390EC
:1031B0004FF48060049069462046FFF750FF204698
:1031C00000F0E6FA0546284605B030BD70B586B079
:1031D00005460C46019412200290402003900020E6
:1031E00004904FF48060059001A92846FFF737FF4F
:1031F00041F288321221284600F03AF9064630465C
:1032000006B070BD70B586B005460C46019411201D
:10321000029040200390002004904FF480600590BD
:1032200001A92846FFF71BFF41F2883211212846E9
:1032300000F01EF90646304606B070BDF0B585B008
:10324000064614461D460094072001904020029037
:10325000002003904FF48060049069463046FFF7E9
:10326000FEFE41F288320721304600F001F90746A0
:10327000384605B0F0BD30B585B00446002000905A
:1032800002200190C0200290002003904FF4806043
:10329000049069462046FFF7E2FE204600F0BEF9A2
:1032A0000546284605B030BD70B586B005460C46CB
:1032B000019409200290C0200390002004904FF454
:1032C0008060059001A92846FFF7C9FE284600F056
:1032D000A5F90646304606B070BD30B585B0044647
:1032E00000200090332001904020029000200390A5
:1032F0004FF48060049069462046FFF7B0FE41F22B
:1033000088323321204600F0B3F80546284605B040
:1033100030BD70B586B005460C4601940D20029074
:1033200040200390002004904FF48060059001A994
:103330002846FFF794FE41F288320D21284600F01E
:1033400097F80646304606B070BD70B586B00546A3
:103350000C460020019003200290402003900020A2
:1033600004904FF48060059001A92846FFF777FE8E
:1033700022460321284600F0AFF90646304606B043
:1033800070BD000030B585B00446002000900C20D0
:10339000019040200290002003904FF48060049040
:1033A00069462046FFF75BFE044A0C21204600F0E8
:1033B0005FF80546284605B030BD000000E1F50580
:1033C00070B586B005460C46019419200290402045
:1033D0000390002004904FF48060059001A92846D6
:1033E000FFF73DFE41F288321921284600F040F8EF
:1033F0000646304606B070BD70B586B005460C4630
:1034000001941820029040200390002004904FF473
:103410008060059001A92846FFF721FE41F288321D
:103420001821284600F024F80646304606B070BD44
:1034300001460E480068C0084FF47A73B0FBF3F001
:1034400041F2883300FB03F200BF1000A2F1010239
:1034500002D14FF000407047486B00F08000002818
:10346000F3D0C52088630020F5E700002C00002081
:103470002DE9F04305460F46904666480068C008AF
:103480004FF47A71B0FBF1F000FB08F900BF5FEA7E
:103490000900A9F1010903D14FF00040BDE8F08314
:1034A0006E6B06F045000028F1D006F4006000289D
:1034B000EDD1686B00F0040010B10420A863EDE7C3
:1034C000686B00F0010010B10120A863E6E7C52099
:1034D000A8632846FFF78DFDB84201D00120DDE743
:1034E00000212846FFF78EFD04464B48204008B9CE
:1034F0000020D3E704F00040B0F1004F02D14FF0BC
:103500000070CBE704F08040B0F1804F01D1402043
:10351000C4E704F00050B0F1005F01D18020BDE7A6
:1035200004F08050B0F1805F02D14FF48070B5E7B5
:1035300004F00060B0F1006F02D14FF40070ADE70D
:1035400004F08060B0F1806F02D14FF48060A5E795
:1035500004F08070B0F1807F02D14FF400609DE7ED
:1035600004F40000B0F5000F02D14FF4805095E74D
:1035700004F48000B0F5800F02D14FF400508DE7C5
:1035800004F40010B0F5001F02D14FF4804085E72D
:1035900004F48010B0F5801F02D14FF400407DE7A5
:1035A00004F48020B0F5802F02D14FF4003075E78D
:1035B00004F40030B0F5003F02D14FF480206DE7F5
:1035C00004F48030B0F5803F02D14FF4002065E76D
:1035D00004F40040B0F5004F02D14FF480105DE7D5
:1035E00004F48040B0F5804F02D14FF4001055E74D
:1035F00004F40050B0F5005F02D14FF480004DE7B5
:1036000004F00800082801D1000547E74FF4803096
:1036100044E700002C00002008E0FFFD10B5014643
:1036200016480068C0084FF47A74B0FBF4F041F219
:10363000883400FB04F300BF1800A3F1010302D19A
:103640004FF0004010BD4A6B02F045000028F3D057
:1036500002F400600028EFD1486B00F0040010B1C4
:1036600004208863EEE7486B00F0010010B10120F0
:103670008863E7E7C52088630020E3E72C0000208B
:1036800010B5014613480068C0084FF47A74B0FBC7
:10369000F4F041F2883400FB04F300BF1800A3F1FA
:1036A000010302D14FF0004010BD4A6B02F045000B
:1036B0000028F3D002F400600028EFD1486B00F03E
:1036C000040010B104208863EEE7C5208863002061
:1036D000EAE700002C0000202DE9F04304460F46E5
:1036E00090462A480068C0084FF47A71B0FBF1F0A8
:1036F00041F2883100FB01F900BF5FEA0900A9F13E
:10370000010903D14FF00040BDE8F083666B06F07D
:1037100045000028F1D006F400600028EDD1606B70
:1037200000F0040010B10420A063EDE7606B00F02E
:10373000010010B10120A063E6E72046FFF759FC25
:10374000B84201D00120DFE7C520A0630021204658
:10375000FFF758FC054605F4604020B9280CA8F88E
:1037600000000020D0E705F48040B0F5804F02D182
:103770004FF40050C8E705F40040B0F5004F02D107
:103780004FF48050C0E74FF48030BDE72C0000209C
:1037900010B5014618480068C0084FF47A74B0FBB1
:1037A000F4F041F2883400FB04F300BF1800A3F1E9
:1037B000010302D14FF0004010BD4A6B02F04500FA
:1037C0000028F3D002F400600028EFD1486B00F02D
:1037D000040010B104208863EEE7486B00F001009C
:1037E00010B101208863E7E7486B00F0400008B1A2
:1037F000402088630020DFE72C00002010B504463D
:10380000012007490870FCF715FE28B90448007824
:1038100020F00100024908700148007810BD000046
:103820000400002070B5044601F0FDFD054604E0EB
:10383000FCF700FE08B9002070BD01F0F4FD401B4C
:10384000A042F5D34FF0FF30F6E700002DE9F0413C
:103850000646B46B3046FDF70DF802282CD0206CDC
:10386000476DE06BD0F85480012F02D0B8F1010F02
:103870001FD11248216888632068C06B20F49D70B6
:103880002168C863A06B40F08040A0632046FDF72C
:10389000A8FF0546062D01D0052D05D12068FFF7AC
:1038A00071FDA16B0843A063012084F8340000205F
:1038B00020632046FDF79CFEBDE8F081FF05400037
:1038C00070B50646B46B206B82280AD12068FFF7DA
:1038D00059FD05462DB1A06B2843A0632046FDF796
:1038E00087FE2068C06A20F008002168C86240F2A4
:1038F0003A5021688863012084F834000020206356
:103900002046FEF7FDF870BD0146886B0268D26B59
:1039100042F480720368DA6370472DE9F04389B09E
:1039200004460F46FDF722F981464FF000080020BB
:10393000019002903E4608212068FFF7DFFB054614
:103940001DB1284609B0BDE8F0835022125B110476
:103950002068FFF798FB05460DB12846F2E74FF0C7
:10396000FF3003900820049030200590022006903C
:10397000002007900120089003A92068FFF723FB8F
:103980002068FFF7AAFC05460DB12846DAE715E0E6
:103990002068406B00F4001038B12068FFF75BFB33
:1039A00001A941F8280008F10108FDF7DFF8A0EBB4
:1039B0000900401C10B94FF00040C3E72068406B7D
:1039C00040F22A4108400028E2D02068406B00F015
:1039D000080018B1082021688863B3E72068406BAD
:1039E00000F0020018B1022021688863AAE720686D
:1039F000406B00F0200018B1202021688863A1E707
:103A000040F23A502168886302980006029901F456
:103A10007F4140EA0120029901F47F0140EA112030
:103A2000029940EA11603060361D01980006019944
:103A300001F47F4140EA0120019901F47F0140EA4D
:103A40001120019940EA1160306000207AE730B51A
:103A50008FB00446012003902068FFF7CEFA18B912
:103A60004FF080600FB030BD606C03281BD0206821
:103A7000FFF701FC05460DB12846F3E70021206859
:103A8000FFF7C0FA606704212068FFF7BBFAA06760
:103A900008212068FFF7B6FAE0670C212068FFF7DD
:103AA000B1FA80210851606C032807D003A920686F
:103AB000FFF74BFC05460DB12846D3E7606C0328A1
:103AC00020D0BDF80C1021655022125B1104206833
:103AD000FFF7EAFB05460DB12846C3E70021206841
:103AE000FFF790FA606604212068FFF78BFAA06662
:103AF00008212068FFF786FAE0660C212068FFF7AE
:103B000081FA206704212068FFF77CFA010DE16447
:103B100004A92046FDF76EFD10B14FF08050A1E7DB
:103B20005020005B01040A4600232068FFF786FB53
:103B300005460DB1284695E7D4E90412A069CDE900
:103B40000012029094E80F00FFF762FA002089E764
:103B5000F8B5044600200090002600272068FFF7F3
:103B600005FB05460DB12846F8BD2068FFF714FB9C
:103B7000054645B10021A1642068FFF7F7FA054624
:103B80001DB12846F0E70121A164A06C012808D1ED
:103B900000212068FFF777FA054615B14FF08050F5
:103BA000E2E71DE000212068FFF76DFA05460DB140
:103BB0002846D9E718492068FFF782FA054615B16B
:103BC0004FF08050D0E700212068FFF71BFA06462F
:103BD000012080EAD67080F001070098401C009018
:103BE0004FF6FF710098884201D2002FDAD04FF6CD
:103BF000FF710098884202D34FF08070B4E706F05E
:103C00008040B0F1804F02D10120606401E00020CB
:103C100060640020A8E70000000010C170B50446F1
:103C20000D4615B94FF0006070BD5022125B1104B3
:103C30002068FFF76EFB06460EB13046F4E7002120
:103C40002068FFF7DFF928600020EDE77CB5044627
:103C500000200090019000212068FFF7D3F900F0C8
:103C60000070B0F1007F02D14FF400607CBD694666
:103C70002046FFF752FE05460DB12846F6E70198AB
:103C800000F4803098B15022125B11042068FFF7D5
:103C9000FAF905460DB12846E8E700212068FFF74C
:103CA00049FA05460DB12846E0E70020DEE74FF06F
:103CB0008060DBE77CB50446002000900190002185
:103CC0002068FFF79FF900F00070B0F1007F02D18B
:103CD0004FF400607CBD69462046FFF71EFE054696
:103CE0000DB12846F6E7019800F4802098B15022E3
:103CF000125B11042068FFF7C6F905460DB128468E
:103D0000E8E702212068FFF715FA05460DB12846BD
:103D1000E0E70020DEE74FF08060DBE71FB50446F8
:103D200001201649087001F070FB10B3FCF78EFB00
:103D300020B92046FFF762FD104908700F4800784F
:103D4000012816D00E48006850B90E4B0FCB8DE8F5
:103D50000F000021684601F070FB0949086000BFB0
:103D60000748006828B90548007840F00100034979
:103D700008700248007804B010BD00000400002064
:103D80000800002004730008F0B589B007460D460E
:103D9000144601261648007800F0010010B10320F7
:103DA00009B0F0BD35B1012D06D0022D0BD0032D89
:103DB00018D10FE0002617E001A8FCF731FB0798A7
:103DC0002060002610E001A8FCF72AFB089820805C
:103DD000002609E001A8FCF723FB0898400A2060B0
:103DE000002601E0042600BF00BF3046D8E70000EF
:103DF000040000202DE9F04786B082460E461746A3
:103E000098464FF0010947F23050FFF70BFD0028AC
:103E100003DA484606B0BDE8F087424639463046E8
:103E2000FCF738FB054615BB47F2305211480168D4
:103E3000684601F017FB9DE8070003AB07C3039832
:103E4000102814D10498012811D101F0ECFA04468D
:103E500005E0FCF7EFFA10B94FF0000906E001F0B9
:103E6000E2FA001B47F230518842F2D300BF4846C5
:103E7000D0E700000800002010B504462046FFF7F8
:103E8000BDFC10BD2DE9F04387B081460D461646B6
:103E90001F464FF0010847F23050FFF7C3FC0028DF
:103EA00003DA404607B0BDE8F0833A46314628467B
:103EB000FCF70EFB10BB47F230521148016801A815
:103EC00001F0D0FA01A807C804AB07C30498102872
:103ED00014D10598022811D101F0A5FA044605E095
:103EE000FCF7A8FA10B94FF0000806E001F09BFAC1
:103EF000001B47F230518842F2D300BF4046D1E761
:103F0000080000207CB504460D4616461648006899
:103F10001821B0FBF1F01549B0FBF1F04FF47A71C4
:103F2000484301906068B0F5827F0DD12B46002296
:103F300080212046009600F01BF898B1606D40F09B
:103F40002000606503207CBD00BF019800B908E037
:103F50000198401E019020688068C0F3C0100028BE
:103F6000F3D100BF0020EEE72C00002040420F00FC
:103F70002DE9F04104460E4617461D46DDF818802F
:103F80003EE0681CD8B3FCF7F1FDA0EB0800A842A6
:103F900000D2A5BB2068406820F0E000216848609E
:103FA0006068B0F5827F0DD1A068B0F5004F03D0F6
:103FB000A068B0F5806F05D12068006820F040004F
:103FC00021680860A06AB0F5005F0DD100BF2068CD
:103FD000006820F40050216808602068006840F400
:103FE00000502168086000BF012084F8510000BF24
:103FF000002084F8500000BF0320BDE8F081FFE7F7
:10400000206880683040B04201D1012000E00020EB
:10401000B842B6D10020F0E700BF012001F0E9F975
:10402000FBE708B500204FF4E13303220B21009099
:1040300000F056FF00F0B0FC00BF00F0C1FF01200F
:1040400001F0D7F9F9E7000010B500BF502080F368
:104050001188BFF34F8FBFF36F8F00BF02F072FF65
:1040600018B14FF080500449086000BF002080F371
:10407000118800BF10BD000004ED00E000B593B052
:10408000302107A8FCF758F9142102A8FCF754F9CD
:1040900000BF002001902648006840F0805024496D
:1040A00008600846006800F08050019000BF00BF23
:1040B00000BF002001901F48006840F440401D49A7
:1040C00008600846006800F44040019000BF00BF4F
:1040D000012007900004089002200D9041050E91E8
:1040E00005210F91B4211091022111910821129103
:1040F00007A8FCF7E5FF08B1FCF717FAFCF738FE54
:1041000008B1FCF712FA0F20029002200390002061
:1041100004904FF4A05005904FF480500690052174
:1041200002A8FCF76BFE08B1FCF7FFF913B000BD65
:1041300040380240007000400548006840F47000BC
:10414000034908604FF000600149803908607047FA
:1041500088ED00E010B50F480068006900F001002C
:10416000A0B10C480068C06800F0010070B16FF0A9
:10417000010008490968086107480088401E80B2AC
:104180000549088010B90548006880470148FEF7D6
:10419000DFF810BDEC05002092000020BC000020DC
:1041A00010B50248FEF7D4F810BD00006C070020DF
:1041B00010B50268294B98420ED0B0F1804F0BD059
:1041C000274B984208D0274B984205D0264B98425F
:1041D00002D0264B984203D122F070024B681A435A
:1041E0001E4B984220D0B0F1804F1DD01C4B9842FE
:1041F0001AD01C4B984217D01B4B984214D01B4B23
:10420000984211D01A4B98420ED01A4B98420BD0BC
:10421000194B984208D0194B984205D0184B984238
:1042200002D0184B984203D122F44072CB681A4353
:1042300022F080034C6943EA040202608B68C36287
:104240000B688362054B984202D0084B984201D11B
:104250000B6903630123436110BD000000000140AE
:104260000004004000080040000C00400004014031
:104270000040014000440140004801400018004057
:10428000001C00400020004030B50C46816821F43D
:104290007F4142EA032525432943816030BD0A4618
:1042A000816821F0700142F0070319438160704773
:1042B00030B50B461446026A056A25F00105056211
:1042C000816921F0F00141EA041122F00A021A4347
:1042D0008161026230BD30B50B461446056A25F097
:1042E000100505628169026A21F4704141EA0431D6
:1042F00022F0A00242EA03128161026230BD000096
:1043000038B5194800680068C0F3401516480068C1
:10431000C06800F020048DB184B114480068804763
:1043200000BF0020009010480068006800900E4810
:1043300000684068009000BF00BF38BD0A480068B0
:104340000068C0F3C01048B107480068C06800F0BA
:10435000800018B1064800688047EEE70248FEF783
:10436000D3F800BFE9E700002C060020B4000020CD
:10437000B800002010B50248FEF7C6F810BD0000D6
:104380006C06002070B50546AC6B0020E085E0842B
:104390002046FEF7B8F870BD0168C96821F4907135
:1043A0000268D1600168496921F001010268516128
:1043B000202180F83A10704710B504462068C06884
:1043C00020F040002168C860202084F83900204691
:1043D000FEF721FB002010BD70B5044694F83A00AA
:1043E00022284AD1A068B0F5805F13D1A56A206960
:1043F00040B920684068C0F308002880A06A801C8B
:10440000A06219E020684068C0B22880A06A401C01
:10441000A06211E0206938B920684068C1B2A26A80
:10442000501CA062117007E02068406800F07F0116
:10443000A26A501CA0621170E08D401E80B2E0851F
:10444000C8B92068C06820F020002168C8602068D2
:10445000C06820F480702168C8602068406920F03E
:10446000010021684861202084F83A002046FEF7C8
:1044700065FA002070BD0020FCE70220FAE700008A
:104480002DE9F84F04462068006920F44050E168A7
:104490000843216808612169A068084361690843ED
:1044A000E169084300902068C06849F20C618843C4
:1044B000009908432168C8602068406920F4407072
:1044C000A169084321684861E069B0F5004F75D1E2
:1044D000E3492068884203D0E249206888426FD1CE
:1044E000FCF786FD814602206168A0FB01510B4666
:1044F0001920A9FB00712A463846FBF7D3FE642138
:10450000B0FBF1F04FEA001A02206168A0FB0151F4
:104510000B461920A9FB00712A463846FBF7C2FE5C
:10452000074602206168A0FB01510B461920A9FB38
:1045300000B12A465846FBF7B5FE6421B0FBF1F006
:1045400000EBC00101EB0010A7EB8000322101EB72
:10455000C0006421B0FBF1F000F0F8000AEB400A63
:1045600002206168A0FB01510B461920A9FB0071D4
:104570002A463846FBF796FE074602206168A0FBF4
:1045800001510B461920A9FB00B12A465846FBF7FA
:1045900089FE6421B0FBF1F000EBC00101EB0010DB
:1045A000A7EB8000322101EBC0006421B0FBF1F0E9
:1045B00000F007005044216888604FE16EE0FFE79B
:1045C000FCF706FD814602206168A0FB01510B4605
:1045D0001920A9FB00712A463846FBF763FE6421C7
:1045E000B0FBF1F04FEA001A02206168A0FB015114
:1045F0000B461920A9FB00712A463846FBF752FEEC
:10460000074602206168A0FB01510B461920A9FB57
:1046100000B12A465846FBF745FE6421B0FBF1F095
:1046200000EBC00101EB0010A7EB8000322101EB91
:10463000C0006421B0FBF1F000F0F8000AEB400A82
:1046400002206168A0FB01510B461920A9FB0071F3
:104650002A463846FBF726FE074602206168A0FB83
:10466000015003461920A9FB00B12A465846FBF722
:1046700019FE6421B0FBF1F000EBC00101EB00106A
:10468000A7EB8000322101EBC0006421B0FBF1F008
:1046900000F00700504421688860DFE0704920681E
:1046A000884203D06F49206888426BD1FCF7A0FC98
:1046B000814604206168A0FB01510B461920A9FB2B
:1046C00000712A463846FBF7EDFD824604206168FA
:1046D000A0FB01510B461920A9FB00712A46384660
:1046E000FBF7E0FD6421B0FBF1F000EBC00101EB52
:1046F0000010AAEB8000322101EB00106421B0FB16
:10470000F1F000F0F00A04206168A0FB01500346BC
:104710001920A9FB00712A463846FBF7C3FD642126
:10472000B0FBF1F00AEB001A04206168A0FB015114
:104730000B461920A9FB00712A463846FBF7B2FD4B
:10474000074604206168A0FB015003461920A9FB1D
:1047500000B12A465846FBF7A5FD6421B0FBF1F0F5
:1047600000EBC00101EB0010A7EB8000322101EB50
:1047700000106421B0FBF1F000F00F0050442168FC
:1047800088606BE0FCF724FC814604206168A0FB94
:10479000015003461920A9FB00712A463846FBF751
:1047A00081FD824604206168A0FB01500346192068
:1047B000A9FB00712A463846FBF774FD6421B0FB63
:1047C000F1F000EBC00101EB0010AAEB80003221F8
:1047D00001EB00106421B0FBF1F000F0F00A0420BE
:1047E0006168A0FB015003461920A9FB00712A460D
:1047F0003846FBF757FD6421B0FBF1F00AEB001AD5
:1048000004206168A0FB017003461920A9FB005039
:1048100001463A462846FBF745FD074604206168F5
:10482000A0FB015003461920A9FB00B12A465846B7
:10483000FBF738FD6421B0FBF1F000EBC00101EBA8
:104840000010A7EB8000322101EB00106421B0FBC7
:10485000F1F000F00F00504421688860BDE8F88F47
:104860000010014000140140014691F83900212850
:104870002CD18868B0F5805F0FD10A6A1088C0F328
:1048800008000B685860086918B9086A801C08623B
:1048900009E0086A401C086205E00B6A581C0862BF
:1048A00018780B685860C88C401E80B2C88458B90C
:1048B0000868C06820F080000B68D8600868C0688D
:1048C00040F040000B68D860002070470220FCE7F1
:1048D0002DE9F04104460D4617469846069E21E014
:1048E000701CF8B12EB1FCF741F9A0EB0800B04202
:1048F00018D92068C06820F4D0702168C86020688A
:10490000406920F0010021684861202084F83900C6
:1049100084F83A0000BF002084F8380000BF03206C
:10492000BDE8F081206800682840A84201D101203C
:1049300000E00020B842D3D00020F1E700BFFEE73E
:1049400002480068C0F30220704700000CED00E050
:1049500010B5002804DB0A07130E054A135406E0BD
:104960000A07140E034A00F00F031B1FD45410BD96
:1049700000E400E018ED00E002E008C8121F08C1E2
:10498000002AFAD170477047002001E001C1121FD0
:10499000002AFBD17047000010B5002406480078BB
:1049A000012806D1054800688047002002490870A8
:1049B00000E00624204610BD9E000020A400002038
:1049C0002DE9F05F06460D464FF0000B28880528BC
:1049D00048D170784FEA0029B07840EA090909F116
:1049E00001001FFA80F9F078040230790443012CA9
:1049F00035DBB4F5FA6F32DA374600202880012023
:104A000007F8010B2888401C288004F0070040B1FB
:104A10002046E11704EB5171C910491C01F0FF0851
:104A200005E02046E11704EB5171C1F3C70807F810
:104A3000018B2888401C288000232246494638469E
:104A400000F004FC8246BAF1000F04D0504601F099
:104A5000BAF8834608E028884044288004E04FF0F4
:104A6000030B01E04FF0030B5846BDE8F09F2DE922
:104A7000F05F06460D464FF0000B2888052847D109
:104A800070784FEA0029B07840EA090909F101007D
:104A90001FFA80F9F078040230790443012C34DBEA
:104AA000B4F5FA6F31DA374600202880022007F883
:104AB000010B2888401C288004F0070040B12046E4
:104AC000E11704EB5171C910491C01F0FF0805E022
:104AD0002046E11704EB5171C1F3C70807F8018BB9
:104AE0002888401C288022464946384600F0B5FBFD
:104AF0008246BAF1000F04D0504601F064F88346B4
:104B000008E028884044288004E04FF0030B01E0CF
:104B10004FF0030B5846BDE8F09F2DE9F0470546DE
:104B20000C464FF0000A2088052838D168784FEAF3
:104B30000028A87840EA080808F101001FFA80F868
:104B4000E878060228790643012E25DB7D2E23DC3A
:104B50002F4600202080032007F8010B2088401CEE
:104B600020807006000E07F8010B2088401C208072
:104B7000002332464146384600F076FB8146B9F1C3
:104B8000000F04D0484601F01EF8824609E0208854
:104B900000EB4600208004E04FF0030A01E04FF0F4
:104BA000030A5046BDE8F0872DE9F04705460C465C
:104BB0004FF0000A2088052837D168784FEA00288E
:104BC000A87840EA080808F101001FFA80F8E878A0
:104BD000060228790643012E24DB7D2E22DA2F4699
:104BE00000202080042007F8010B2088401C208032
:104BF0007006000E07F8010B2088401C208032460A
:104C00004146384600F0B6FB8146B9F1000F04D0AA
:104C1000484600F0D8FF824609E0208800EB4600B5
:104C2000208004E04FF0030A01E04FF0030A5046F1
:104C3000BDE8F0872DE9FC5F04460D46002000909A
:104C400028880A285DDB60784FEA002AA07840EACD
:104C50000A0A0AF101001FFA80FAE07806022079B8
:104C6000064360794FEA002BA07940EA0B0B0BF169
:104C700001001FFA80FBE0790702207A0743607A7F
:104C80000190012E3BDB7D2E39DC012F37DB792FA4
:104C900035DC79000198814231D101233A465946E9
:104CA00004F10A0000F0E0FA8146B9F1000F1ED1CC
:104CB000A04600202880172008F8010B2888401CF7
:104CC00028807006000E08F8010B2888401C2880F8
:104CD000002332465146404600F0C6FA8146B9F1FB
:104CE000000F04D12888022101FB06002880B9F1B9
:104CF000000F06D0484600F066FF009001E0032058
:104D000000900098BDE8FC9F70B505460C4606482B
:104D100002880649681CFBF7F6FA03480088401C25
:104D20002080002070BD000060010020A845002008
:104D30002DE9F84304460F464FF00008388805284F
:104D400029D160780502A0780543681C85B22079D6
:104D5000F0B9E078FF2801D0E078C8B900208DF8DC
:104D60000100E078FF2803D101208DF8000002E067
:104D700000208DF8000001231A462946684600F0FD
:104D800065FA06464EB1304600F01DFF804604E04D
:104D90004FF0030801E04FF003084046BDE8F883F8
:104DA0002DE9F04104460F464FF0000838880528E9
:104DB00012D160780502A0780543681C85B20123F2
:104DC0001A462946E01C00F04FFA064636B1304636
:104DD00000F0F9FE804601E04FF003084046BDE8D0
:104DE000F0812DE9F05F05460E464FF0000B30884C
:104DF000052839DD68780702A8780743781C87B250
:104E0000E87804022879044395F805A004F0070027
:104E100040B12046E11704EB5171C910491C01F063
:104E2000FF0805E02046E11704EB5171C1F3C70804
:104E3000012C16DBB4F5F66F13DCD04511D101233C
:104E400022463946A81D00F001FA8146B9F1000F4B
:104E500004D0484600F0B7FE834607E005203080C6
:104E600004E04FF0030B01E04FF0030B5846BDE8A0
:104E7000F09F2DE9F04704460E464FF0000A3088B7
:104E8000062828DB60780702A0780743781C87B2E1
:104E9000E07805022079054394F80590012D17DB91
:104EA000782D15DC6806000E484511D101232A46ED
:104EB0003946A01D00F0D8F98046B8F1000F04D0A3
:104EC000404600F080FE824607E00520308004E086
:104ED0004FF0030A01E04FF0030A5046BDE8F087A7
:104EE0002DE9F04705460C4616461F46DDF8209092
:104EF0004FF000081CB1012C01DBF72C02DD4FF054
:104F0000020835E01C48047005BB1C481C490860B9
:104F10001C481D4908601D481D4908601D481E4960
:104F2000086000201D4908601D481E4908601E4891
:104F30001E4908601E481F4908604B463A463146E4
:104F40000D48007800F0D2F8804602E04FF00208E9
:104F500000BF00BFB8F1000F0AD101F0B9F910B9D4
:104F60004FF0030804E0144805700120134908704D
:104F70004046BDE8F08700009C0000201952000860
:104F8000A400002039520008A80000208D5100081C
:104F9000A000002041510008AC000020B00000201B
:104FA00011640008B4000020D9640008B800002093
:104FB00099640008BC0000209D0000209E00002095
:104FC00038B500253F48007808B1062038BD68464E
:104FD00001F06CF9012873D19DF80000012806D07A
:104FE000022805D0042818D0082868D166E066E0B9
:104FF000354A36493648374B1B68984705465DB9F0
:105000003348007834490978884202D03048007823
:1050100010B9042001F064F951E02C4800680078D0
:105020002E49087001202E490870002417E02D48F1
:1050300010F8340000B914E02A4810F83400274969
:10504000097888420AD1274800EBC4001E4942680B
:105050001E48006890472249087002E0641C102C2A
:10506000E5DB00BF1A48007830B31D480078C8B1AE
:105070000020154908801948007840F08001124846
:1050800002880088401C104B18801048006881542A
:1050900013480178184602880088401C18800B4885
:1050A0000068815408480288084801680A48007866
:1050B0000D4B1B689847054601E001E000BF00BFAB
:1050C000002083E79E0000204E01002048010020C0
:1050D0004C010020AC0000209C0000204D0100206D
:1050E00050010020C8000020A00000202DE9F0475A
:1050F00081460E4614461F464FF0000872B63B46E6
:1051000008222146304601F001F9012802D04FF073
:1051100003080FE0B4F5964F01D9232503E06000A2
:105120000649B1FBF0F5A8B201F042F9012801D01F
:105130004FF0030862B64046BDE8F087A07F170035
:105140002DE9F04104460D461646002772B60D487B
:105150000088042810DB0B4801880B4800F0F8FD9C
:1051600050B909480078207006480088C01E308079
:105170000548401C286000E0052762B63846BDE8B7
:10518000F08100005E010020A84400202DE9F041DC
:1051900005460E4617464FF0000872B619480078CB
:1051A000012829D1701E184908600120174908807C
:1051B000154800680570084600883844088008468D
:1051C00001881148006800F0C3FD04460F490888B3
:1051D000411C0E4B19800E490C54221219460888A6
:1051E000411C19800A490A5401200A49087001210A
:1051F000002000F01FFE01E04FF0050862B64046B7
:10520000BDE8F08155010020580100205C0100201C
:10521000A84400205401002010B572B600200549B2
:1052200008700021012000F005FE00F04BFE62B680
:1052300010BD00005501002010B572B600210846CF
:1052400000F0F8FD00F036FE62B610BD10B5044661
:1052500009B1481E81B2012010BD034609B1481EA4
:1052600081B20120704700002DE9FE4305460C463F
:1052700090461E460020019002900CB1601E84B240
:10528000002716B1012E6BD100E06BE014B1012CA8
:1052900062D160E06878012806D0022819D003287E
:1052A0002CD0042854D13EE001208DF804000022C7
:1052B00010212E48FBF754FC6423052201A92C4839
:1052C000FCF726FE0090012210212848FBF748FC3D
:1052D0003FE002208DF80400002210212348FBF754
:1052E0003FFC6423052201A92148FCF711FE009030
:1052F000012210211D48FBF733FC2AE003208DF822
:105300000400002210211948FBF72AFC642305221F
:1053100001A91748FCF7FCFD009001221021134859
:10532000FBF71EFC15E004208DF80400002210217C
:105330000E48FBF715FC6423052201A90C48FCF775
:10534000E7FD0090012210210848FBF709FC00E06E
:1053500000BF00BF02E001E0012700BF00BF01E085
:10536000022700BF00BF3846BDE8FE8300000240B0
:105370008C04002010B5034609B14C1EA1B20020D8
:10538000012010BD00BFEFF3058008B10120704778
:105390000020FCE7FBF7FCFBFEF770FEFDF7A6FB29
:1053A000FDF73CFBFDF756FBFDF7C4FCFDF7E4FC05
:1053B000FDF704FDFDF724FDFDF776FDFDF790FDFB
:1053C000FDF7AAFDFDF7C4FDFDF7DEFDFDF7A0FC2E
:1053D000FDF75CFBFDF736FDFDF766FB00F01EF800
:1053E00000BFFEE701460020842901D0CA1C1044FA
:1053F000704770B5044625460DB1294600E00121ED
:10540000084600F051FE002070BD10B501F07AFD95
:10541000012801D1002010BD0120FCE710B500F0EB
:105420009FFE002010BD10B5FFF7ACFF10B101F0DA
:105430007FFD10BD01F076FDFBE7F8B504460D4693
:10544000A06840B1E06830B10020009094E80F00FF
:1054500001F05CF9F8BD0022D4E9000101F026F961
:10546000F8E700002DE9FF4107460D461446029576
:10547000002001903DB9802000909DE8070087E85A
:105480000700BDE8FF81002003900026601C08B9DA
:10549000761E03E014B1264606B90126FFF772FF17
:1054A000B0B103AA01A9284601F0F0FB012802D1FE
:1054B0001020009001E0002000900398B8B14FF058
:1054C00080500E490860BFF34F8FBFF36F8F0EE01F
:1054D000324601A9284601F025FB012802D11020FF
:1054E000009004E00EB9002000E0402000909DE80C
:1054F000070087E8070000BFC3E7000004ED00E0F5
:1055000077B581B00646144600200090254605B9BF
:105510000125FFF737FFA8B100236A4602A93046EC
:1055200001F084FA012802D0FF2004B070BD009879
:1055300090B14FF0805009490860BFF34F8FBFF31F
:105540006F8F09E000232A4602A9304601F09AF93C
:10555000012801D0FF20E8E70020E6E704ED00E0A5
:105560007FB504460D46606998B1A06988B1B4F969
:105570000800FFF737FF0646D4E90510CDE90061C2
:1055800002902B462269D4E9001001F05DFC0390E3
:1055900013E0B4F90800FFF725FF064603A8CDE99C
:1055A0000060238A9AB22B46D4E9001001F01AFC5D
:1055B000012802D0002004B070BD0398FBE7000072
:1055C0002DE9F04105460E461C4807681C48006856
:1055D000001D00F0D9FB50B91948006890F82C1054
:1055E0000120884017490968814316480160681CFA
:1055F00038B936B112480168091D134800F00EFC95
:105600001AE07C190E4800684460BC4207D20C487E
:105610000168091D0D48006800F0E6FB0CE0084831
:105620000168091D0A48006800F0DEFB09480068AF
:10563000844201D207480460BDE8F08144000020A4
:10564000300000204800002088080020380000209A
:10565000340000206000002010B5044600F042FC39
:1056600023480068401C224908602248006840B96D
:10567000204804600846006801280DD100F0A6F912
:105680000AE01D48006838B91A480068C06AE16A33
:10569000884201D81748046018480068401C174920
:1056A000086094F82C1001208840154909680843C7
:1056B00013490860E16A01EB8101124A02EB8100A3
:1056C000211D00F0ABFB00F037FC0B48006868B10F
:1056D00008480068C06AE16A884207D24FF08050EB
:1056E00009490860BFF34F8FBFF36F8F10BD0000F3
:1056F00040000020300000204C0000205C00002012
:1057000048000020AC07002004ED00E010B516E0D2
:1057100000F0E8FB0C48C068C468201D00F034FBB2
:105720000A480068401E0949086009480068401E90
:105730000749086000F000FC204600F05FF80448CC
:1057400000680028E4D110BD74080020400000204B
:105750003C00002070B504460D46206C70B1216CF1
:10576000E0680144E160D4E90210884201D3216875
:10577000E1602846226CE168FAF7C5FD70BD2DE9AD
:10578000F04104460F4615464FF00008A66B206C0A
:1057900048B9206800282CD1A06801F077FC804629
:1057A0000020A06025E07DB93946226C6068FAF7D8
:1057B000AAFD216C606808446060D4E90101884258
:1057C00017D32068606014E03946226CE068FAF76D
:1057D0009AFD216CE068411AE1602168E068884226
:1057E00003D2216CA068411AE160022D01D106B1FB
:1057F000761E701CA0634046BDE8F08110B50446DB
:1058000094F8510030B9206B00F0B4FB204600F052
:10581000B1FB1AE094F85100012803D1204600F0B2
:10582000A9FB12E094F85100022801D1012000E008
:10583000002050B900BF502080F31188BFF34F8F74
:10584000BFF36F8F00BF00BFFEE710BD30B54FF450
:105850007053174800F007042CB1C01D20F007005A
:10586000134C041B1B1B0246124C22600024114DDA
:105870006C60D018083820F007000F4C206000241E
:105880000D4D2D686C600C4D2D682C601146441A2E
:105890004C60094C24680C60084D4C682C60084D25
:1058A0004C682C604FF00044064D2C6030BD000069
:1058B0009C0800206C000020740000207C00002068
:1058C000780000208000002000BFFFF71FFF06487F
:1058D00000680128F9D94FF0805004490860BFF3EF
:1058E0004F8FBFF36F8FF0E7AC07002004ED00E0AF
:1058F0002DE9F04106460D4617469846069C0DB91F
:10590000246000E02760E66325640121204600F062
:105910006DFFBDE8F0812DE9FF5F81460E4692469E
:10592000DDE90E7B109CAAF10100216B01EB8008E0
:1059300028F0070808F0070008B9012000E000205F
:1059400050B900BF502080F31188BFF34F8FBFF3D1
:105950006F8F00BF00BFFEE786B1002507E0715DD5
:1059600004F134004155705D00B902E06D1C102D4A
:10597000F5D300BF00214320015502E0002084F848
:105980003400072F00D30627E76267640020A06475
:10599000201D00F026FA04F1180000F022FA24611C
:1059A000C7F10700A06164620020E06484F8500041
:1059B00049464046039A00F0B5F92060BBF1000F5C
:1059C00001D0CBF80040BDE8FF9F000010B50024D7
:1059D00007E004EB84010F4A02EB810000F0F4F9C8
:1059E000641C072CF5D30C4800F0EEF90B4800F0CE
:1059F000EBF90B4800F0E8F90A4800F0E5F90A482D
:105A000000F0E2F9044809490860044808490860C0
:105A100010BD0000AC070020380800204C08002012
:105A2000600800207408002088080020340000204E
:105A30003800002010B50146164800E000680368F1
:105A40008B42FBD30246436813448B4204D1436824
:105A50004C682344436001460A464B68134404687B
:105A6000A34211D10C4C03682468A34208D04B68B0
:105A70000468646823444B6003681B680B6005E09E
:105A8000054B1B680B6001E003680B60884200D087
:105A9000016010BD6C0000207400002070B5054648
:105AA00000F020FAA86B08B9012400E0002400F0FF
:105AB00043FA204670BD70B5054600F013FAA86B96
:105AC000E96B884201D1012400E0002400F034FA9F
:105AD000204670BD0A490968096809B9012100E03A
